:100000000C949F020C94D0020C94D0020C94D00259
:100010000C94D0020C94D0020C94D0020C94D00218
:100020000C94D0020C94D0020C94D0020C94D00208
:100030000C94D0020C94D0020C94D0020C94D002F8
:100040000C94D0020C94D0020C94D0020C94D002E8
:100050000C94D0020C94D0020C94D0020C94D002D8
:100060000C94D0020C94271B0C94D0020C94D00258
:100070000C947F1B0C94D0020C94D0020C94D002F0
:100080000C94D0020C94D0020C94D0020C94D002A8
:100090000C94D0020C94D0020C94D0020C94D00298
:1000A0000C94D0020C94D0020C94D0020C94D00288
:1000B0000C94D0020C94D0020C94D0020C94D00278
:1000C0000C94D0020C94D0020C94D0020C94D00268
:1000D0000C94D0020C94D0020C94D0020C94FD0A23
:1000E0000C94D0020C94D0020C94871C0C94D00277
:1000F0000C94D0020C94DF1C0C94D0020C94D0020F
:100100000C94D0020C94D0020C94D0020C94D00227
:100110000C94D0020C94D0020C94D0020C94D00217
:100120000C94D0020C94D0020C94D0020C94D00207
:100130000C94D0020C94D0020C94D0020C94D002F7
:100140000C94D0020C94D0020C94D0020C94D002E7
:100150000C94D0020C94D0020C94D0020C94D002D7
:100160000C94D71B0C94D0020C94D0020C942F1C2E
:100170000C94D0020C94D0020C94D0020C94D002B7
:100180000C94D0020C94D0020C94D0020C94D002A7
:100190000C94D0020C94D0020C94D0020C94D00297
:1001A0000C94D0020C94D0020C94D0020C94D00287
:1001B0000C94D0020C94D0020C94D0020C94D00277
:1001C0000C94D0020C94D0020C94D0020C94D00267
:1001D0000C94D0020C94D0020C94D0020C94371DD5
:1001E0000C94D0020C94D0020C94D0020C94D00247
:1001F0000C94D0020C94D0020C94D002F118F41894
:10020000F718FA18FD180019021913191B192519E6
:1002100023190C949C020C94890D0C9488040C9462
:1002200011040C9400190C9420160C947C1A0C9454
:1002300025190C94F7180C94F81D0C94691A0C9459
:10024000431A0C949B180C94FD180C9499180C9458
:10025000B8140C94F4180C9413190C941B190C94E6
:1002600002190C949C180C9495060C94FA180C9492
:1002700002160C9423190C9494180C9496180C9450
:10028000E3170C942B160C941F1A0C94F1182C20C5
:10029000544343304343413D002F002C20486561C7
:1002A0007020667265653A200054696D653A2000D9
:1002B0004465632020342032303139004D453530DB
:1002C00037204672656552544F5320786D656761DB
:1002D00020706F7274200020202020683A20202097
:1002E00048414C50210020202020653A2020204504
:1002F00078697420636F6D6D616E64206D6F6465E5
:100300000020202020733A202020537461636B204A
:1003100064756D7020666F72207461736B7300205A
:10032000202020763A20202056657273696F6E2057
:10033000616E6420736574757020696E666F726D8E
:100340006174696F6E00202020206E3A20202053B7
:10035000686F77207468652074696D6520726967BD
:100360006874206E6F77002020496E20636F6D6D7A
:10037000616E64206D6F6465206F6E6C793A002049
:100380002043746C2D413A20456E74657220636F72
:100390006D6D616E64206D6F646500202043746C28
:1003A0002D433A2052657365742074686520415668
:1003B00052002068656C70004D453530372046721C
:1003C000656552544F5320786D65676120706F7278
:1003D0007420001B5B33306D001B5B34366D0049AD
:1003E0006C6C6567616C2073746174652120526563
:1003F00073657474696E6720415652003A575446CB
:100400003F004578697420636F6D6D616E64206D87
:100410006F646500526573657474696E6720415638
:1004200052005072657373204374726C2D412066C4
:100430006F7220636F6D6D616E64206D6F64650017
:10044000526573657474696E67004552524F52204D
:10045000696E207461736B20004552524F522063C5
:1004600072656174696E67207461736B20002C2063
:10047000737461636B20617420307800206372654F
:1004800061746564005461736B20001B5B32326DD4
:10049000005461736B3A20001B5B316D001B5B32B3
:1004A000326D005461736B3A2049444C45001B5B2C
:1004B000316D000909002F0049444C4509093009F4
:1004C0002D0900092D2D2D2D00092D2D2D2D2D2D22
:1004D0002D2D2D2D002D2D2D2D09092D2D2D2D09E5
:1004E0002D2D2D2D2D000952756E73000946726554
:1004F000652F546F74616C004E616D65090950720F
:10050000692E0953746174650009537461636B004B
:100510005461736B09092020092000090009002F8C
:1005200000090009001B5B32326D001B5B316D005E
:100530001B5B316D002020000E945013F81D112418
:100540001FBECFEFCDBFDFE5DEBF00E00CBF10E286
:10055000A0E0B0E2EEEFFDE300E00BBF02C00790C9
:100560000D92AA39B107D9F721E4AAE9B0E201C096
:100570001D92A434B207E1F712E0CFE9D2E000E027
:1005800006C021970109802FFE010E945A1ECE3914
:10059000D10780E00807A9F70E948F1D0C94FD1E6B
:1005A0000C940000FC016083718321E030E002C004
:1005B000220F331F4A95E2F72283FB0180812095A9
:1005C000282320830895DC01ED91FC91119720856B
:1005D00012968C91922F982381E009F480E008957F
:1005E0006F927F928F929F92AF92BF92CF92DF9243
:1005F000EF920F93CF93DF93FC0162837383842E7A
:10060000912C81E090E0382F042E01C0330F0A9422
:10061000EAF73483622E712C382F022E01C0330F7B
:100620000A94EAF73583EC0102C0CC0FDD1F0A956E
:10063000E2F7C68301C0880FEA94EAF78783C08691
:10064000D186A286B3864083218388EE93E0848797
:100650009587DB018C91C82BCC93C281D381988183
:100660008781892B8883C281D3819C818681892B54
:100670008C83C281D3819C818781892B8C83C281A9
:10068000D38198818481892B8883C281D381988189
:100690008581892B8883C085D18581EF8883C0853A
:1006A000D185848595858EA39FA3C085D1858BEF49
:1006B0008983C085D18580E18B83C085D185A8964B
:1006C000C401880F991FC80FD91F1882198200848E
:1006D000F185E02DB896C301880F991FE80FF91F27
:1006E00010821182DF91CF910F91EF90DF90CF9028
:1006F000BF90AF909F908F907F906F900895CF9311
:10070000DF93FC0166230CF447C06436DCF0A0855F
:10071000B1859896808190E0880F991FA80FB91F26
:10072000848595858D939C9320853185285D3F4FE9
:10073000818190E0880F991FF901E80FF91F10825D
:1007400011826CC0C085D185A896808190E0880F09
:10075000991FC80FD91F4485558564039001659F73
:10076000300D11243695279536952795ABE7B4E1E2
:100770000E94621E9695879588839983208531858E
:10078000285D3F4F818190E0880F991FF901E80FA4
:10079000F91F1082118242C06D39CCF4A085B18559
:1007A0009896808190E0880F991FA80FB91F1D921D
:1007B0001C92A085B1859896818190E0880F991F41
:1007C000A80FB91F848595858D939C9327C0A0851C
:1007D000B1859896808190E0880F991FA80FB91F66
:1007E0001D921C92C085D185A896818190E0880FCA
:1007F000991FC80FD91F4485558564039001659FD3
:10080000300D11243695279536952795ABE7B4E141
:100810000E94621E9695879588839983DF91CF9178
:100820000895CF93DF93CDB7DEB72D97CDBFDEBF51
:100830008C010E94280F69837A838B839C836AE0F2
:1008400070E080E090E00E94331146E060EA76E0DC
:10085000CE0105960E94D20247E060EA76E0CE0122
:1008600008960E94D20242E060EA76E0CE010B9642
:100870000E94D202FF24F394CE0105960E94E30267
:10088000882361F0CE0108960E94E302882331F0AC
:10089000CE010B960E94E30281110BC0E091304122
:1008A000F09131410FB6F8940F92F0820F900FBE85
:1008B0000AC0E0913041F09131410FB6F8940F92A7
:1008C00010820F900FBEF80186859785A089B189A7
:1008D0000196A11DB11D86879787A08BB18B4AE039
:1008E00050E060E070E0CE0101960E94C610C4CFD7
:1008F0000F931F93CF93DF93EC010E9463138AE061
:1009000090E288839983DF91CF911F910F91089591
:10091000CF93DF93CDB7DEB7A097CDBFDEBF4C013D
:100920000E94280F69837A838B839C836AE070E03E
:1009300080E090E00E9433110F2EA12CF9E0BF2E31
:10094000F02D0F2EC12CF9E0DF2EF02D0F2EF5E04B
:10095000EF2EF02D04E022E043E060E676E0CE01E9
:1009600005960E94F002A12C6894BB24B3F8C12C18
:100970006894DD24D3F80F2EF6E0EF2EF02D05E07D
:1009800023E041E060E476E0CE0143960E94F0026D
:10099000F4018485813019F130F0823079F18330AF
:1009A00009F43BC055C062E3CE0105960E947F0367
:1009B00062E3CE0143960E947F030FB6F8940F9234
:1009C0000F900FBEE0913041F0913141808188233A
:1009D00009F443C063E0C4010E945F133EC064E6B3
:1009E000CE0105960E947F0364E6CE0143960E94E5
:1009F0007F0362E0C4010E945F132FC060E0CE015C
:100A000005960E947F0360E0CE0143960E947F031B
:100A100063E0C4010E945F1320C062E3CE0105962B
:100A20000E947F036AEBCE0143960E947F030FB6BC
:100A3000F8940F920F900FBEE0913041F091314148
:100A4000808181110AC060E0C4010E945F1305C06B
:100A500064E6CE0143960E947F03F4018685978564
:100A6000A089B1890196A11DB11D86879787A08BAA
:100A7000B18B4AE050E060E070E0CE0101960E9448
:100A8000C61086CF0F931F93CF93DF93EC010E9484
:100A9000631382E190E288839983DF91CF911F9164
:100AA0000F9108950F931F93CF93DF93EC010E9452
:100AB00063138AE190E288839983DF91CF911F913C
:100AC0000F9108950F931F93CF93DF93EC016AE08A
:100AD0008E819F810E94E2188C0169ED73E00E9473
:100AE000AB186AE0C8010E94E2188C0163ED73E064
:100AF0000E94AB1867E0C8010E94E2186AE08E818C
:100B00009F810E94E2188C0168EB73E00E94AB1891
:100B10006AE0C8010E94E2188C0162EB73E00E9457
:100B2000AB1866E0C8010E94E2186AE08E819F81DE
:100B30000E94E2188C016BE973E00E94AB1866E03A
:100B4000C8010E94E2186AE08E819F810E94E2182B
:100B50008C016FE773E00E94AB1866E0C8010E9449
:100B6000E2186AE08E819F810E94E2188C0167E69C
:100B700073E00E94AB1866E0C8010E94E2186AE0C8
:100B80008E819F810E94E2188C0166E473E00E94CE
:100B9000AB1866E0C8010E94E2186AE08E819F816E
:100BA0000E94E2188C016FE173E00E94AB1866E0CE
:100BB000C8010E94E2186AE08E819F810E94E218BB
:100BC0008C0161E073E00E94AB1866E0C8010E94EE
:100BD000E2186AE08E819F810E94E2188C0166EE25
:100BE00072E00E94AB1866E0C8010E94E2186AE059
:100BF0008E819F810E94E218EC0167ED72E00E94F5
:100C0000AB1866E0CE010E94E218DF91CF911F91F0
:100C10000F910895AF92BF92CF92DF92EF92FF9221
:100C20000F931F93CF93DF9300D000D0CDB7DEB7E3
:100C30008C0119821A821B821C821D821E820E94D4
:100C4000D3086C01CE0101960E9414175C0166E086
:100C5000F801868197810E94E2186AE00E94E218FA
:100C60007C016CEB72E00E94AB186AE0C7010E9445
:100C7000E2187C0160EB72E00E94AB1866E0C701ED
:100C80000E94E2186AE00E94E2187C0169EA72E0C0
:100C90000E94AB18B501C7010E94B8166AE00E9415
:100CA000E2187C016BE972E00E94AB18B601C70143
:100CB0000E9429196AE00E94E2187C0169E972E049
:100CC0000E94AB184FEF5FE160E070E0C7010E9447
:100CD0005D19C0902808D09029086AE0F801868143
:100CE00097810E94E2187C016EE872E00E94AB18C6
:100CF000B601C7010E94291966E00E94E21866E069
:100D00000E94E218F801868197810E94711526964B
:100D1000CDBFDEBFDF91CF911F910F91FF90EF907C
:100D2000DF90CF90BF90AF900895CF93DF9300D026
:100D300000D0CDB7DEB78C0119821A821B821C82CB
:100D40001D821E826AE0DC0116968D919C91179798
:100D50000E94E2187C0162E274E00E94AB1866E037
:100D6000C7010E94E218F8018485882321F08130B0
:100D700009F45DC0D8C086819781DC01ED91FC91BA
:100D80000480F581E02D19958823A9F1F801868169
:100D90009781DC01ED91FC910680F781E02D19959A
:100DA000992781309105F9F0039709F0D8C06AE0DE
:100DB000F801868197810E94E2188C0164E174E059
:100DC0000E94AB1866E0C8010E94E21893E088ED2B
:100DD00008B618BE84BF909380008091820081FD88
:100DE000FCCF08BEFFCFC8010E94620561E0C801C8
:100DF0000E945F13B4C082E391E40E94201688230E
:100E000009F4ADC0D8011696ED91FC9117970190A9
:100E1000F081E02DE280F38082E391E40E940216EB
:100E2000682FF80186819781F701199598C086810E
:100E30009781DC01ED91FC910480F581E02D1995FD
:100E4000882309F48CC0F80186819781DC01ED913B
:100E5000FC910680F781E02D19959C0133272836F7
:100E6000310559F13CF42B31310559F12536310565
:100E700041F13BC023373105C1F02637310589F0F8
:100E80002E36310591F5CE0101960E941417BC0152
:100E9000F801868197810E94B81666E00E94E218E8
:100EA0005EC0C8010E940A065AC0D80116968D91EC
:100EB0009C9117970E94781452C0C8010E94620545
:100EC0004EC06AE0F801868197810E94E2187C0199
:100ED00062E074E00E94AB1866E0C7010E94E2186D
:100EE00060E0C8010E945F133AC0F801A681B78193
:100EF000ED91FC9111970280F381E02D682FCD01D7
:100F000019956AE0D80116968D919C9117970E94C9
:100F1000E2187C016CEF73E00E94AB1866E0C70139
:100F20000E94E2181CC06AE0F801868197810E9445
:100F3000E2188C016FED73E00E94AB1866E0C80107
:100F40000E94E21893E088ED08B618BE84BF909323
:100F500080008091820081FDFCCF08BEFFCFF801A8
:100F600086859785A089B1890196A11DB11D8687C7
:100F70009787A08BB18B61E070E080E090E00E94E9
:100F80003311F1CE0F93CF93DF931F92CDB7DEB71E
:100F90002FB72983F8941BBEFC0108ED04BF6083C2
:100FA00089818FBF0F90DF91CF910F910895CF93DB
:100FB000DF931F92CDB7DEB78FB78983F894E0E552
:100FC000F0E08BEC8283808188608083818183FF65
:100FD000FDCFE0E5F0E082EC858380818061808355
:100FE000818184FFFDCF60914000687F646080E470
:100FF00090E00E94C207E0E5F0E080818E7F808370
:1010000089818FBF0F90DF91CF9108950F931F9328
:10101000CF93DF93EC010E94220F80919A208111DF
:101020001DC0AFE9B0E2E3EAF0E2ED93FC93119763
:1010300012961D921C921397ABE9B0E28FEF9FE1DD
:1010400012968D939C9313971D921C9211978283F5
:101050009383A083B18381E080939A20209709F441
:101060005FC09E012B5F3F4F2496CE3FDF4108F0CB
:101070005AC0E0919F20F091A020AFE9B0E202C0F9
:10108000DF01FC01828193818217930720F4808124
:1010900091810097A9F7C0E2EB39FC0709F446C03B
:1010A000CD91DC9111978E010B5F1F4F8081918153
:1010B0008D939C9382819381821B930B8B3091053E
:1010C00010F1BF01620F731FDB0112968D939C9389
:1010D00013972283338312964D915C9113978FE976
:1010E00090E201C0CD01EC01A881B98112962D9149
:1010F0003C91139724173507A8F3EB01A883B98314
:10110000DC016D937C9380910020909101202281DD
:101110003381821B930B809300209093012008C0A1
:1011200000E010E005C000E010E002C000E010E0C8
:101130000E944410C801DF91CF911F910F91089533
:101140000F931F93CF93DF93009741F1EC018C0134
:10115000055011090E94220FF80142815381AFE925
:10116000B0E201C0DF01ED91FC9111972281338142
:1011700024173507B8F32597E883F9830D931C935B
:1011800020910020309101208A819B81820F931F42
:1011900080930020909301200E944410DF91CF9112
:1011A0001F910F9108958091002090910120089542
:1011B000FC010396818392834FEF5FEFBA01438373
:1011C0005483658376838783908781879287108293
:1011D0000895FC01128613860895CF93DF93FC01D6
:1011E000DB0121813281E9018C819D8114968D93EF
:1011F0009C9315978181928116968D939C93179756
:101200008C819D81EC016E837F83E9016C837D83FA
:10121000618372831A96ED93FC931B9780818F5F95
:101220008083DF91CF9108950F931F93CF93DF9326
:10123000EB01088119812A813B810F3F4FEF140791
:101240002407340731F4DC011996ED91FC911A97CB
:101250001FC0FC013396DC0117964D915C911897E5
:10126000DA014D915D916D917C9104171507260768
:10127000370770F00480F581E02DA481B5814D9190
:101280005D916D917C91041715072607370790F73C
:10129000A481B581AC83BD831696CD93DC9317975B
:1012A000EE83FF83C483D5838A879B87FC012081DB
:1012B0002F5F2083DF91CF911F910F910895FC0143
:1012C000A481B5818681978116968D939C931797FB
:1012D000A681B7818481958114968D939C931597EF
:1012E000A285B38511968D919C911297E817F90705
:1012F00031F48681978111968D939C931297128673
:1013000013868C9181508C930895809342419093E1
:10131000434131E1FC013083319722E22083319750
:10132000A3E3A08331976083319770833197108254
:1013300031971082319760E860833197108231973E
:10134000108231971082319762E06083319763E0B9
:101350006083319764E06083319765E06083319703
:1013600066E06083319767E06083319768E060836F
:10137000319769E06083319760E160833197308312
:10138000319732E13083319733E13083319734E163
:101390003083319735E13083319736E130833197AF
:1013A00037E13083319738E13083319739E1308349
:1013B000319730E23083319731E2308331972083A7
:1013C000319723E2208331974083319750833197BF
:1013D00026E22083319727E22083319728E2208379
:1013E000319729E22083319720E32083319721E34D
:1013F0002083899708958CE78093690A8FEF809303
:10140000680A81E08093400A90E19093410A8093BA
:10141000470AA0910241B0910341CD91CDBFDD912A
:10142000DEBFFF91EF91DF91CF91BF91AF919F917F
:101430008F917F916F915F914F913F912F911F916C
:101440000F91FF90EF90DF90CF90BF90AF909F9063
:101450008F907F906F905F904F903F902F901F9054
:101460000F900CBE0F900BBE0F900FBE0F90089503
:1014700008950F920FB6F8940F920BB60F920CB618
:101480000F921F9211242F923F924F925F926F9270
:101490007F928F929F92AF92BF92CF92DF92EF9204
:1014A000FF920F931F932F933F934F935F936F93ED
:1014B0007F938F939F93AF93BF93CF93DF93EF93DC
:1014C000FF93A0910241B09103410DB60D920EB66B
:1014D0000D920E946111A0910241B0910341CD9102
:1014E000CDBFDD91DEBFFF91EF91DF91CF91BF9135
:1014F000AF919F918F917F916F915F914F913F91AC
:101500002F911F910F91FF90EF90DF90CF90BF90A0
:10151000AF909F908F907F906F905F904F903F9093
:101520002F901F900F900CBE0F900BBE0F900FBE10
:101530000F9008950F920FB6F8940F920BB60F927A
:101540000CB60F921F9211242F923F924F925F92EE
:101550006F927F928F929F92AF92BF92CF92DF92C3
:10156000EF92FF920F931F932F933F934F935F93AD
:101570006F937F938F939F93AF93BF93CF93DF939B
:10158000EF93FF93A0910241B09103410DB60D92EC
:101590000EB60D920E94430F0E946111A09102416C
:1015A000B0910341CD91CDBFDD91DEBFFF91EF91B1
:1015B000DF91CF91BF91AF919F918F917F916F916B
:1015C0005F914F913F912F911F910F91FF90EF905D
:1015D000DF90CF90BF90AF909F908F907F906F9053
:1015E0005F904F903F902F901F900F900CBE0F90E8
:1015F0000BBE0F900FBE0F900895E0E0F9E080A5BC
:1016000091A58150934880A791A70E949A0A1895A6
:10161000CF93DF93EC0188A181110BC08881998160
:10162000892BE1F58A819B810E941C131A821B82FF
:1016300035C0411117C0482F50E08C819D810E9418
:101640007C1E28A18C819D81820F911D8C839D839E
:101650002A813B818217930708F1888199818C83C5
:101660009D831CC0482F50E08E819F810E947C1E6C
:1016700088A190E09195819591092E813F81280F55
:10168000391F2E833F83488159812417350730F451
:101690002A813B81820F931F8E839F838E8D8F5F64
:1016A0008E8FDF91CF910895FC0180819181009709
:1016B000A1F040A150E026813781240F351F2683F9
:1016C0003783A281B3812A173B0710F08683978363
:1016D000CB01668177810E947C1E08950F931F9332
:1016E000CF93DF93EC010FB6F8940F928AA11816EE
:1016F000B4F48B89811105C012C08B89811104C09B
:101700000EC08E010D5E1F4FC8010E94E8118111AD
:101710000E94A5128AA181508AA3181674F38FEF34
:101720008AA30F900FBE0FB6F8940F9289A11816D6
:10173000B4F48885811105C012C08885811104C068
:101740000EC08E01085F1F4FC8010E94E811811171
:101750000E94A51289A1815089A3181674F38FEFF6
:1017600089A30F900FBEDF91CF911F910F91089524
:101770001F93CF93DF93613059F0FC0123893085AB
:1017800031112CC011E0211110E0211128C001C03D
:1017900011E0EC014881598128A130E06F8D629FF2
:1017A000C001639F900D1124BA01680F791F6A83ED
:1017B0007B831E8E4C835D83821B930B840F951F4E
:1017C0008E839F838FEF89A38AA3CE0108960E9400
:1017D000D808CE0143960E94D80801C010E0812F9E
:1017E000DF91CF911F9108950F931F93CF93DF93B4
:1017F000882301F1062F182F83E290E00E9406084B
:10180000EC01892BC9F0109FC001112401960E94A0
:10181000060888839983892B39F01F8F08A361E01C
:10182000CE010E94B80B08C0CE010E94A008C0E003
:10183000D0E002C0C0E0D0E0CE01DF91CF911F9197
:101840000F910895AF92BF92CF92DF92EF92FF92E5
:101850000F931F93CF93DF93CDB7DEB72997CDBFFB
:10186000DEBF7C015B012E833F834887598710E0F0
:101870006C0188E0C80ED11C0FB6F8940F92F701E6
:10188000968D878D9817A8F4402FB501C7010E9447
:10189000080BF7018389882341F0C70143960E9412
:1018A000E811813011F40E94390A0F900FBE81E0D7
:1018B00056C08E819F81A885B985892B8A2B8B2B59
:1018C00021F40F900FBE80E04AC0111105C0CE0177
:1018D00001960E94271211E00F900FBE0E94220F66
:1018E0000FB6F8940F92F70181A18F3F09F411A26E
:1018F000F70182A18F3F09F412A20F900FBEBE0123
:101900006A5F7F4FCE0101960E943812811121C07B
:101910000FB6F8940F92F701968D0F900FBE878D3A
:10192000981311C04E815F8168857985C6010E9438
:10193000BE11C7010E946E0B0E94441081119CCF02
:101940000E94390A99CFC7010E946E0B0E94441071
:1019500093CFC7010E946E0B0E94441080E029962D
:10196000CDBFDEBFDF91CF911F910F91FF90EF9020
:10197000DF90CF90BF90AF900895AF92BF92CF927B
:10198000DF92EF92FF920F931F93CF93DF93CDB728
:10199000DEB72997CDBFDEBF7C015B012E833F837D
:1019A0004887598710E06C0183E1C80ED11C0FB63F
:1019B000F8940F92F701868D882399F1C680D7801D
:1019C000B501C7010E94540B01111AC0F701868DA1
:1019D0008150868F80819181892B29F40E94C212C7
:1019E000F70182839383F70180858823B1F0C701D3
:1019F00008960E94E811813081F40E94390A0DC0D6
:101A0000F701C682D7828389882339F0C7014396BC
:101A10000E94E81181110E94390A0F900FBE81E0E7
:101A200062C08E819F81A885B985892B8A2B8B2BDB
:101A300021F40F900FBE80E056C0111105C0CE01F9
:101A400001960E94271211E00F900FBE0E94220FF4
:101A50000FB6F8940F92F70181A18F3F09F411A2FC
:101A6000F70182A18F3F09F412A20F900FBEBE01B1
:101A70006A5F7F4FCE0101960E94381281112DC0FE
:101A80000FB6F8940F92F701868D0F900FBE81115B
:101A90001EC080819181892B49F40FB6F8940F9272
:101AA000828193810E94C7120F900FBE4E815F8189
:101AB00068857985C6010E94BE11C7010E946E0B20
:101AC0000E944410811173CF0E94390A70CFC70160
:101AD0000E946E0B0E9444106ACFC7010E946E0BD9
:101AE0000E94441080E02996CDBFDEBFDF91CF91E8
:101AF0001F910F91FF90EF90DF90CF90BF90AF902C
:101B000008950FB6F8940F92FC01868D0F900FBECA
:101B10000895C6EDD0E488818230E8F30E94390A46
:101B2000FACFCF92DF92EF92FF926B017C01E091AE
:101B30000241F09103416283738384839583809192
:101B4000AA409091AB40A091AC40B091AD40C81676
:101B5000D906EA06FB0668F46091024170910341E0
:101B60008091BC409091BD406E5F7F4F0E941409F0
:101B700021C060910241709103418091BE409091DB
:101B8000BF406E5F7F4F0E941409809102209091A8
:101B90000320A0910420B0910520C816D906EA06BA
:101BA000FB0640F4C0920220D0920320E092042071
:101BB000F0920520FF90EF90DF90CF9008954F9224
:101BC0005F926F927F928F929F92AF92BF92CF92CD
:101BD000DF92EF92FF920F931F93CF93DF935C01FD
:101BE0004B013A01290188E290E00E940608EC01CD
:101BF000892B09F4D4C0C114D10409F0CCC0C301AD
:101C00000E9406088B8F9C8F009721F4CE010E94C2
:101C1000A008C5C0A30161E170E00E94851E930188
:101C2000215031098B8D9C8D3C01620E731E4AE060
:101C300050E0B401CE014D960E948C1E1EA2102FC2
:101C4000043008F013E01A8F1FA36E0122E0C20EC9
:101C5000D11CC6010E94E908CE010E960E94E90837
:101C6000CA87DB8784E090E0A0E0B0E0811B9109A7
:101C7000A109B1098E879F87A88BB98BCE8BDF8B8B
:101C8000A201B501C3010E94850988839983E114EB
:101C9000F10419F0F701C083D1830FB6F8940F92C5
:101CA0008091AE408F5F8093AE40809102419091D1
:101CB0000341892B89F5C0930241D0930341809160
:101CC000AE408130C1F586ED90E40E94D80881EEE7
:101CD00090E40E94D8088CEE90E40E94D80887EF28
:101CE00090E40E94D8088BEC90E40E94D80880EC25
:101CF00090E40E94D80881EB90E40E94D8088BEC15
:101D000090E48093BE409093BF4080EC90E4809339
:101D1000BC409093BD400FC08091A74081110BC083
:101D2000E0910241F0910341828D081720F0C093A9
:101D30000241D09303418A8D9091A940981710F4E5
:101D40008093A9409091A2409F5F9093A240909170
:101D5000A840981710F48093A840FBE08F9FC00123
:101D60001124B6018A529F4B0E94ED080F900FBEBE
:101D70008091A740882359F0E0910241F0910341FE
:101D8000828D801730F40E94390A81E009C081E019
:101D900007C081E005C0CB8EDC8EC6013BCF8FEF44
:101DA000DF91CF911F910F91FF90EF90DF90CF9037
:101DB000BF90AF909F908F907F906F905F904F906B
:101DC00008950FB6F8940F92009721F48091024184
:101DD000909103410F900FBEFC01828D0895AF9248
:101DE000BF92CF92DF92EF92FF920F93A12CB12C72
:101DF000C12CD12C0F2EFFEAEF2EF0E4FF2EF02D98
:101E000000E020E030E044E650E06EE170E289E876
:101E10009DE00E94DF0D813069F4F8948093A74023
:101E20001092AA401092AB401092AC401092AD407C
:101E30000E94FB090F91FF90EF90DF90CF90BF9031
:101E4000AF9008958091A6408F5F8093A64008953B
:101E50000FB6F8940F926091AA407091AB408091B8
:101E6000AC409091AD400F900FBE0895009721F4C3
:101E700080910241909103414D9608958091AF4029
:101E80009091B0400895FF920F931F93CF93DF93EB
:101E90008091A6408111EDC08091AA409091AB4005
:101EA000A091AC40B091AD400196A11DB11D8093B1
:101EB000AA409093AB40A093AC40B093AD408091CA
:101EC000AA409091AB40A091AC40B091AD40892B1D
:101ED0008A2B8B2BF1F58091BE409091BF402091D1
:101EE000BC403091BD402093BE403093BF408093B2
:101EF000BC409093BD408091A3408F5F8093A340EE
:101F0000E091BE40F091BF40808181110CC08FEF05
:101F10009FEFDC018093022090930320A093042084
:101F2000B093052016C0E091BE40F091BF400780FD
:101F3000F085E02D0084F185E02D82819381A481DC
:101F4000B5818093022090930320A0930420B09346
:101F500005204091AA405091AB406091AC407091F7
:101F6000AD408091022090910320A0910420B09177
:101F70000520481759076A077B0708F47FC0E091DE
:101F8000BE40F091BF4080818823F9F0E091BE40CF
:101F9000F091BF400780F085E02DC085D1858A8112
:101FA0009B81AC81BD814091AA405091AB40609132
:101FB000AC407091AD40481759076A077B0758F14C
:101FC0000F2EFBE0FF2EF02D2FC08FEF9FEFDC01D7
:101FD0008093022090930320A0930420B0930520C7
:101FE0004DC0E091BE40F091BF400780F085E02DEC
:101FF000C085D1858A819B81AC81BD814091AA40F9
:102000005091AB406091AC407091AD40481759077A
:102010006A077B0748F48093022090930320A093E3
:102020000420B09305202AC08E010E5F1F4FC80107
:102030000E945F09888D998D892B21F0CE010E9623
:102040000E945F098A8D9091A840981710F48093A0
:10205000A840F89EC0011124B8018A529F4B0E94EB
:10206000ED08E091BE40F091BF4080818111B9CF71
:10207000ACCF8091A5408F5F8093A540DF91CF9139
:102080001F910F91FF900895CF92DF92EF92FF92F0
:102090000F931F93CF93DF930FB6F8940F92809115
:1020A000A64081508093A6408091A640811160C0D7
:1020B0008091AE4081112CC05EC0D7011796ED9182
:1020C000FC911897C085D185CE010E960E945F09BC
:1020D0008E010E5F1F4FC8010E945F098A8D90918B
:1020E000A840981710F48093A840D89EC0011124EE
:1020F000B8018A529F4B0E94ED08E0910241F09195
:1021000003419A8D828D981770F0CC24C3940BC034
:10211000C12C0F2EF1EBEF2EF0E4FF2EF02D0F2E41
:10212000FBE0DF2EF02DF70180818111C6CF809179
:10213000A540882381F08091A540882399F00E94D2
:10214000430F8091A54081508093A5408091A54088
:102150008111F5CF07C0F1E0CF1621F08091A440A6
:10216000813041F41092A4400E94390A81E003C0FA
:1021700080E001C080E00F900FBEDF91CF911F91F2
:102180000F91FF90EF90DF90CF900895CF92DF9264
:10219000EF92FF92CF93DF93EC016A017B010E94E3
:1021A000220F88819981AA81BB81C80ED91EEA1E9F
:1021B000FB1E4091AA405091AB406091AC407091A1
:1021C000AD40481759076A077B07B8F4C816D90607
:1021D000EA06FB06E0F58091AA409091AB40A09101
:1021E000AC40B091AD40C882D982EA82FB828C15A6
:1021F0009D05AE05BF05F8F413C0C816D906EA065A
:10220000FB0600F18091AA409091AB40A091AC40B8
:10221000B091AD408C159D05AE05BF0598F017C077
:10222000809102419091034102960E945F09C7018B
:10223000B6010E94910D0E94441081110DC00E94B0
:10224000390A0AC0C882D982EA82FB82E9CFC882F1
:10225000D982EA82FB82EFCFDF91CF91FF90EF909E
:10226000DF90CF900895CF92DF92EF92FF926B01B3
:102270007C01672B682B692BE9F00E94220F80916B
:10228000AA409091AB40A091AC40B091AD40C80E37
:10229000D91EEA1EFB1E80910241909103410296D5
:1022A0000E945F09C701B6010E94910D0E9444106F
:1022B000811102C00E94390AFF90EF90DF90CF9009
:1022C00008958091A64081110CC0E091A8404BE098
:1022D000E49FF0011124EA52FF4B8081882329F00A
:1022E00014C081E08093A44008959BE08091A840B1
:1022F00081508093A840E091A8409E9FF001112456
:10230000EA52FF4B8081882389F38091A840282FCF
:1023100030E04BE0849FC0011124DC01AA52BF4B86
:102320001196ED91FC9112970480F581E02D1196A4
:10233000ED93FC93129787529F4BE817F90761F4CE
:10234000848195814BE0429FF001439FF00D112461
:10235000EA52FF4B818392838BE0829FF001839F3F
:10236000F00D1124EA52FF4B0180F281E02D8085AF
:10237000918580930241909303410895CF92DF921B
:10238000EF92FF926A017B016091024170910341DB
:10239000625F7F4F0E941409809102419091034136
:1023A00002960E945F098091AA409091AB40A09153
:1023B000AC40B091AD40BC01CD016C0D7D1D8E1DBA
:1023C0009F1D0E94910DFF90EF90DF90CF90089598
:1023D0000F931F93CF93DF93DC011796ED91FC9140
:1023E0001897C085D1858E01025F1F4FC8010E94DA
:1023F0005F098091A640811116C00C501109C801D7
:102400000E945F098A8D9091A840981710F48093DC
:10241000A840BBE08B9FC0011124B8018A529F4B9A
:102420000E94ED0805C0B80181EB90E40E94ED0820
:10243000E0910241F091034181E02A8D928D2917AC
:1024400008F480E0DF91CF911F910F9108952091C2
:10245000A340FC0120834091AA405091AB40609181
:10246000AC407091AD40418352836383748308957F
:102470008F929F92AF92BF92CF92DF92EF92FF9294
:102480000F931F93CF93DF93FC010FB6F8940F9235
:102490008091A3409081981789F08091AA409091F3
:1024A000AB40A091AC40B091AD400181128123813D
:1024B000348180179107A207B307A8F58091AA403D
:1024C0009091AB40A091AC40B091AD40C180D28022
:1024D000E380F480EB01088119812A813B818C190A
:1024E0009D09AE09BF0980179107A207B307E8F459
:1024F000CF018090AA409090AB40A090AC40B090AB
:10250000AD40B501A4014C195D096E097F09041B9A
:10251000150B260B370B088319832A833B830E94F4
:10252000271280E003C081E001C081E00F900FBE60
:10253000DF91CF911F910F91FF90EF90DF90CF909F
:10254000BF90AF909F908F90089581E08093A440BA
:102550000895009721F48091024190910341DC019C
:102560005B96ED91FC915C978081813141F43196CD
:1025700080E090E0019621912131E1F3089580E01F
:1025800090E00895809102419091034108950F9346
:102590001F93CF93DF93FC01228DA0910241B09154
:1025A00003415A968C91281708F041C0A09102412E
:1025B000B09103415A963C9184E090E0A0E0B0E0F5
:1025C000831B9109A109B10986879787A08BB18BDD
:1025D0008BE0289F900111242A523F4B84859585DA
:1025E00082179307E9F48F01EF012296CE010E9432
:1025F0005F09E0910241F0910341828DF801828FE1
:102600009091A840981710F48093A840FBE08F9F0A
:10261000C0011124BE018A529F4B0E94ED0807C0E1
:10262000A0910241B09103415A968C91828FDF9123
:10263000CF911F910F9108950F931F93CF93DF9325
:10264000009749F1FC01328D27A1321721F1EC01ED
:102650008C010E5F1F4FC8010E945F098FA18A8FF6
:1026600044E050E060E070E0481B510961097109E5
:102670004E875F87688B798B9091A840981710F4EC
:102680008093A840FBE08F9FC0011124B8018A52BB
:102690009F4B0E94ED08DF91CF911F910F910895FC
:1026A000EC01E881F9810190F081E02D19951A8201
:1026B0001B826FEF7FEFCB010E943311FACFFC0139
:1026C0006487658708954F925F926F927F928F9291
:1026D0009F92AF92BF92CF92DF92EF92FF920F93B1
:1026E0001F93CF93DF93CDB7DEB72A97CDBFDEBF61
:1026F0004C012901380187E290E2F4018083918343
:10270000FB018081882369F0DE011196319690E00B
:1027100002C0993039F09F5F8D9381918111F9CF7B
:1027200001C090E0E1E0F0E0EC0FFD1FE90FF11DCA
:1027300010827401F2E0EF0EF11CA12CB12CC12C1F
:10274000D12C042F9401A201BE016F5F7F4F8CE951
:1027500092E00E94DF0DF401668277824086518606
:1027600020910441309105412483358380920441B6
:102770009092054114861586409042415090434105
:10278000FFEF4F1A5F0A4092424150924341F401D9
:102790004286538616861786108A118A6114710440
:1027A00009F444C0813079F56AE0C3010E94E2185F
:1027B0007C0165E874E00E94AB18BE016F5F7F4F3B
:1027C000C7010E94AB186AE0C7010E94E2187C01B1
:1027D0006CE774E00E94AB186AE0C7010E94E2183F
:1027E0007C016EE674E00E94AB1863E0C7010E94B2
:1027F000E218B2010E94291962E00E94E21866E024
:102800000E94E21813C06AE0C3010E94E2184C0162
:1028100069E574E00E94AB18BE016F5F7F4FC40191
:102820000E94AB1866E0C4010E94E2182A96CDBF50
:10283000DEBFDF91CF911F910F91FF90EF90DF905E
:10284000CF90BF90AF909F908F907F906F905F9050
:102850004F900895CF92DF92EF92FF920F931F93C4
:10286000CF93DF93EC017B018A819B810E94360F1D
:102870006C016AE0C7010E94E2188C0168E974E00B
:102880000E94AB186AE0C8010E94E2188C0161E95D
:1028900074E00E94AB18B601C8010E94AB186AE050
:1028A000C8010E94E2188C016BE874E00E94AB182A
:1028B00066E0C8010E94E2188A859B85E885F98553
:1028C00001E121E0A701BC018E1B9F0B0E942C1788
:1028D0008C819D81009719F0B7010E942A14DF9125
:1028E000CF911F910F91FF90EF90DF90CF900895BF
:1028F0000F931F93CF93DF93EC018091044190914C
:102900000541009719F0BE010E942A146AE0CE0129
:102910000E94E2188C016EEA74E00E94AB186AE033
:10292000C8010E94E2188C0163EA74E00E94AB18AF
:102930006AE0C8010E94E2188C016DE974E00E940F
:10294000AB1866E0C8010E94E21880914241909164
:102950004341BC016F5F7F4F01E121E0AE0183562F
:1029600091090E942C17DF91CF911F910F9108952B
:102970008F929F92AF92BF92CF92DF92EF92FF928F
:102980000F931F93CF93DF93EC018B018A819B817F
:102990000E94360FBC01C8010E94AB18D801ED910E
:1029A000FC910280F381E02D69E0C80119958A81CC
:1029B0009B810E94360FFC0101900020E9F73197BE
:1029C000E81BF90B389748F4D801ED91FC9102808F
:1029D000F381E02D69E0C8011995CE84DF84E88891
:1029E000F988A884B9848A819B810E94A912982EB3
:1029F0008C848A819B810E94E10E682FC8010E940D
:102A00009F196AE00E94E218EC0163E275E00E94FF
:102A1000AB18682DCE010E949F196AE00E94E2184F
:102A2000EC0161E275E00E94AB18692DCE010E94B5
:102A30009F196AE00E94E218EC016FE175E00E94C4
:102A4000AB18B501CE010E9429196AE00E94E21874
:102A5000EC016DE175E00E94AB186AE0CE010E94C6
:102A6000E218EC016BE175E00E94AB18B701A6011A
:102A7000CE010E945D19DF91CF911F910F91FF90C0
:102A8000EF90DF90CF90BF90AF909F908F90089580
:102A9000CF93DF93EC01CB01DB01ED91FC91028040
:102AA000F381E02DBE011995CE01DF91CF910895FC
:102AB0000F931F93CF93DF93EC018B01BC01C801EF
:102AC0000E94481566E00E94E2188C819D81009763
:102AD00019F0B8010E945815DF91CF911F910F9105
:102AE00008950F931F93CF93DF93EC016AE00E9448
:102AF000E2188C0160E175E00E94AB186AE0C80141
:102B00000E94E2188C0169E075E00E94AB1866E053
:102B1000C8010E94E2186AE0CE010E94E2188C010E
:102B200068EF74E00E94AB186AE0C8010E94E218E6
:102B30008C016CEE74E00E94AB186AE0C8010E9440
:102B4000E2188C0166EE74E00E94AB1866E0C801E2
:102B50000E94E2186AE0CE010E94E2188C0165ED45
:102B600074E00E94AB186AE0C8010E94E2188C0170
:102B700069EC74E00E94AB186AE0C8010E94E21898
:102B80008C0163EC74E00E94AB1866E0C8010E94FF
:102B9000E2188091044190910541009719F0BE011F
:102BA0000E9458150E943E0F0E94A912182F6AE039
:102BB000CE010E94E218EC0168EB74E00E94AB18B1
:102BC000612FCE010E949F196AE00E94E218EC0179
:102BD00066EB74E00E94AB1864E670E0CE010E94E0
:102BE00029196AE00E94E218EC0163EB74E00E948C
:102BF000AB1866E0CE010E94E218DF91CF911F91E1
:102C00000F9108950F93CF93DF931F92CDB7DEB747
:102C100000E02FEF3FEFA901BE016F5F7F4FFC0186
:102C2000808591850E94BD0C813019F4898190E0E6
:102C300002C08FEF9FEF0F90DF91CF910F9108951A
:102C4000FC01808591850E94810D91E0811101C078
:102C500090E0892F08950F93CF93DF931F92CDB704
:102C6000DEB76983FC01228533854485558500E004
:102C7000BE016F5F7F4F808591850E94220C91E09D
:102C8000811101C090E0892F0F90DF91CF910F91BA
:102C900008958F929F92BF92CF92DF92EF92FF9210
:102CA0000F931F93CF93DF93EC01B62E4A01680177
:102CB00079010E949D188FE290E2888399838E8625
:102CC0009F8640E061E08B2D0E94F40B88879987F6
:102CD000CA86DB86EC86FD86DF91CF911F910F912E
:102CE000FF90EF90DF90CF90BF909F908F900895CE
:102CF000CF92DF92EF92FF92CF93DF93EC01688146
:102D000079818A819B810F2EF8EECF2EF3E0DF2EA2
:102D1000E12CF12CF02DA70196010E94191E9B01B8
:102D2000AC0160E472E48FE090E00E94091EA7010C
:102D300096010E94191E69017A01AC81BD8120E4CF
:102D400032E44FE050E00E94711E20E038E448EE8B
:102D500051E00E94191EC701B601620F731F841F44
:102D6000951FDF91CF91FF90EF90DF90CF90089566
:102D7000CF92DF92EF92FF920F931F93CF93DF9347
:102D8000CDB7DEB72F97CDBFDEBF6C018B01DB0166
:102D90006D917D918D919C9128EE33E040E050E063
:102DA0000E94191EBA01A901C6010E945D19D6012F
:102DB000ED91FC910280F381E02D6EE2C601199540
:102DC000C8010E9478168E01095F1F4FFE013196DF
:102DD0007F012AE030E040E050E00E943B1EE62FF9
:102DE000288739874A875B87688579858A859B85A7
:102DF00020E32E0FD8012E938D01AE15BF0549F7A4
:102E00001F82BE016F5F7F4FC6010E94AB18C601D3
:102E10002F96CDBFDEBFDF91CF911F910F91FF9015
:102E2000EF90DF90CF900895CF93DF93EC010FB632
:102E3000F8940F9280912008909121088C839D83B3
:102E40000E94280F688379838A839B830F900FBE2B
:102E5000CE01DF91CF9108955F926F927F928F9212
:102E60009F92AF92BF92CF92DF92EF92FF920F9319
:102E70001F93CF93DF935C014B017A01122F702EC9
:102E800063E0CA010E94E218A814B90408F07DC0EA
:102E9000650184E1C80ED11C00E06A2C5B2CB501F1
:102EA000C7010E9429196AE00E94E21865E375E0F3
:102EB0000E94AB18112309F46DC0002309F46AC005
:102EC0006AE0C7010E94E21860E375E00E94AB1857
:102ED00061C0112371F001110CC08881871549F080
:102EE0006AE0C7010E94E2186BE275E00E94AB182D
:102EF00001E06991C7010E949F19DC01ED91FC91ED
:102F00000280F381E02D60E21995CC16DD0609F709
:102F1000112389F06AE0C7010E94E218EC0165E222
:102F200075E00E94AB18E881F9810280F381E02D01
:102F300060E2CE011995C62DD52D699180EE860FE0
:102F40008F3548F4D701ED91FC910280F381E02D9B
:102F5000C701199509C0D701ED91FC910280F38159
:102F6000E02D6EE2C7011995CC16DD0631F7B4E10C
:102F7000AB0EB11C66E0C7010E94E21884E1C80EE6
:102F8000D11CA814B90408F488CF62E0C7010E94DC
:102F9000E21803C0C62DD52D9CCFDF91CF911F9194
:102FA0000F91FF90EF90DF90CF90BF90AF909F90E8
:102FB0008F907F906F905F9008950E94060808950B
:102FC0000E94060808950895CF93DF93FC01DA016B
:102FD000403A68E0560749F480E496E082839383A0
:102FE00082E0848383E085834CC0403B78E05707D0
:102FF00049F480E496E08283938386E0848387E0CB
:1030000085833FC0403A89E0580749F480E696E05E
:103010008283938382E0848383E0858332C0403B54
:1030200069E0560749F480E696E08283938386E060
:10303000848387E0858325C0403A7AE0570749F4C6
:1030400080E896E08283938382E0848383E08583B3
:1030500018C0403B8AE0580749F480E896E0828334
:10306000938386E0848387E085830BC0403A5B408E
:1030700041F480EA96E08283938382E0848383E054
:103080008583A683B783CD010196808791870396B8
:10309000828793872581C281D3814C8181E090E032
:1030A000BC0102C0660F771F2A95E2F79B01242B13
:1030B0002C832581C281D3814881BC0102C0660F67
:1030C000771F2A95E2F79B01242B28833481C28144
:1030D000D381288102C0880F991F3A95E2F7809525
:1030E00090958223888380E113968C93139783E0D5
:1030F00015968C93159780EF17968C93179781E20E
:1031000016968C93169788E114968C9380E88587A1
:1031100080E4868780E284870680F781E02D8081C5
:103120008081DF91CF91089581E0089580E090E063
:10313000089580E0089508950895FC018FE390E2DA
:10314000808391838AE08283138283E08583148263
:103150001682178208950F931F93CF93DF938C01EC
:10316000FB01DC0114968C91811104C06081611116
:1031700017C023C0D80114961C92EB0121966491CC
:103180006623D9F0D801ED91FC910280F381E02D06
:10319000C8011995FE01649121966111F3CF0DC00C
:1031A000EF012196D801ED91FC910280F381E02D91
:1031B000C801199569916111F5CFDF91CF911F91E8
:1031C0000F910895CF93DF93EC01862F90E08B3021
:1031D0009105D8F5FC018827E250FF4F8F4F0C94E2
:1031E0005A1E82E08A8331C088E08A832EC08AE03A
:1031F0008A832BC080E18A8328C081E08B8325C02D
:103200001B8223C0E881F9810280F381E02D6DE00B
:10321000CE011995E881F9810280F381E02D6AE001
:10322000CE01199512C0E881F9810284F385E02D61
:10323000CE0119950AC0E881F9810084F185E02D5D
:10324000CE01199502C081E08C83CE01DF91CF9130
:103250000895FF920F931F93CF93DF93CDB7DEB7FF
:103260006197CDBFDEBF8C01F62E972FF80142810A
:10327000403121F0483011F0423041F4692FC8014B
:103280000E949F196F2D0E949F190DC050E0BE0132
:103290006F5F7F4F8F2D0E94C81EBE016F5F7F4FF3
:1032A000C8010E94AB18C8016196CDBFDEBFDF9197
:1032B000CF911F910F91FF900895DF92EF92FF92AF
:1032C0000F931F93CF93DF93CDB7DEB7A197CDBFF9
:1032D000DEBF8C01D42EE52EF62E972FF801228129
:1032E000203121F0283011F0223071F4692FC8010B
:1032F0000E949F196F2D0E949F196E2D0E949F1989
:103300006D2D0E949F190FC030E0AE014F5F5F4FDF
:103310006D2D7E2D8F2D0E949B1EBE016F5F7F4FF6
:10332000C8010E94AB18C801A196CDBFDEBFDF91D6
:10333000CF911F910F91FF90EF90DF900895CF9262
:10334000DF92EF92FF920F931F93CF93DF93CDB74E
:10335000DEB72997CDBFDEBF8C01E62EDC011396C8
:103360008C911397882341F0ED91FC910280F381B9
:10337000E02DC801199556C0F8014281423019F577
:103380006894CC24C3F8D12C6894FF24F7F88E2DD0
:103390008F2151F0D801ED91FC910280F381E02D55
:1033A00061E3C801199509C0D801ED91FC91028033
:1033B000F381E02D60E3C8011995F694B1E0CB1AD2
:1033C000D10829F72FC04031F9F462956F70019050
:1033D000F081E02D0280F381E02D6A3010F0695C0D
:1033E00001C0605DC80119956E2D6F70D801ED9117
:1033F000FC910280F381E02D6A3010F0695C01C01D
:10340000605DC80119950EC050E0BE016F5F7F4F2F
:103410008E2D90E00E94C81EBE016F5F7F4FC801D5
:103420000E94AB18C8012996CDBFDEBFDF91CF91B6
:103430001F910F91FF90EF90DF90CF900895DC01E6
:103440005096ED91FC915197808154964C915497F0
:10345000842329F009C02150310919F412C021E256
:103460003EE490819423B9F3908156968C915697BF
:10347000892B80831E96ED91FC911F97608381E0DC
:10348000089580E00895CF93DF93FC01C18DD28D24
:1034900028813981A38DB48D4D915C912417350716
:1034A000E9F3A789B08D0D90BC91A02DA20FB31F99
:1034B0008C912F5F3F4F288339832436310528F0C4
:1034C000018CF28DE02D1082118290E0DF91CF917E
:1034D0000895CF93DF93EC01A98DBA8DEB8DFC8D10
:1034E00081E04D915C91208131814217530709F4AD
:1034F00080E0DF91CF910895DC01ED91FC91028095
:10350000F381E02D6CE019950895EF92FF920F93EF
:103510001F93CF93DF93EC017B018A010E949D18DA
:10352000A801B701CE0108960E94E4178FE490E24B
:1035300088839983003A88E0180769F48EE291E461
:103540008F8B988F80E291E4898F9A8F82E191E44A
:103550008B8F9C8F64C0003BE8E01E0769F48CE20F
:1035600091E48F8B988F8EE191E4898F9A8F80E11F
:1035700091E48B8F9C8F53C0003AF9E01F0769F4E8
:103580008AE291E48F8B988F8CE191E4898F9A8FF6
:103590008EE091E48B8F9C8F42C0003B89E018073E
:1035A00069F488E291E48F8B988F8AE191E4898FA6
:1035B0009A8F8CE091E48B8F9C8F31C0003AEAE0C7
:1035C0001E0769F486E291E48F8B988F88E191E47D
:1035D000898F9A8F8AE091E48B8F9C8F20C0003B6B
:1035E000FAE01F0769F484E291E48F8B988F86E1FB
:1035F00091E4898F9A8F88E091E48B8F9C8F0FC024
:10360000003A1B4061F482E291E48F8B988F84E151
:1036100091E4898F9A8F86E091E48B8F9C8F0F893C
:10362000188D84E690E00E94E017F8018083918372
:10363000E98DFA8D10821182EB8DFC8D1082118242
:10364000DF91CF911F910F91FF90EF9008951F92FE
:103650000F920FB60F9211240BB60F922F933F9338
:103660008F939F93EF93FF932091A008E0912E41B9
:10367000F0912F418091124190911341E80FF91F71
:1036800020838091124190911341019684369105D7
:1036900060F4809312419093134120912041309126
:1036A000214182179307F1F40CC01092124110923D
:1036B000134180912041909121411816190691F4EF
:1036C0000EC001968436910528F480932041909392
:1036D000214108C0109220411092214103C081E095
:1036E00090E0F3CFFF91EF919F918F913F912F91B8
:1036F0000F900BBE0F900FBE0F901F9018951F924A
:103700000F920FB60F9211240BB60F922F933F9387
:103710008F939F93EF93FF932091B008E0912C41FA
:10372000F0912D418091104190911141E80FF91FC6
:10373000208380911041909111410196843691052A
:1037400060F4809310419093114120911E4130917B
:103750001F4182179307F1F40CC010921041109290
:10376000114180911E4190911F411816190691F444
:103770000EC001968436910528F480931E419093E3
:103780001F4108C010921E4110921F4103C081E0EA
:1037900090E0F3CFFF91EF919F918F913F912F9107
:1037A0000F900BBE0F900FBE0F901F9018951F9299
:1037B0000F920FB60F9211240BB60F922F933F93D7
:1037C0008F939F93EF93FF932091A009E0912A415B
:1037D000F0912B4180910E4190910F41E80FF91F1C
:1037E000208380910E4190910F410196843691057E
:1037F00060F480930E4190930F4120911C413091D1
:103800001D4182179307F1F40CC010920E411092E3
:103810000F4180911C4190911D411816190691F499
:103820000EC001968436910528F480931C41909334
:103830001D4108C010921C4110921D4103C081E03F
:1038400090E0F3CFFF91EF919F918F913F912F9156
:103850000F900BBE0F900FBE0F901F9018951F92E8
:103860000F920FB60F9211240BB60F922F933F9326
:103870008F939F93EF93FF932091B009E09128419C
:10388000F091294180910C4190910D41E80FF91F71
:10389000208380910C4190910D41019684369105D1
:1038A00060F480930C4190930D4120911A41309126
:1038B0001B4182179307F1F40CC010920C41109237
:1038C0000D4180911A4190911B411816190691F4EF
:1038D0000EC001968436910528F480931A41909386
:1038E0001B4108C010921A4110921B4103C081E095
:1038F00090E0F3CFFF91EF919F918F913F912F91A6
:103900000F900BBE0F900FBE0F901F9018951F9237
:103910000F920FB60F9211240BB60F922F933F9375
:103920008F939F93EF93FF932091A00AE0912641FC
:10393000F091274180910A4190910B41E80FF91FC6
:10394000208380910A4190910B4101968436910524
:1039500060F480930A4190930B412091184130917B
:10396000194182179307F1F40CC010920A4110928A
:103970000B4180911841909119411816190691F444
:103980000EC001968436910528F4809318419093D7
:10399000194108C0109218411092194103C081E0EA
:1039A00090E0F3CFFF91EF919F918F913F912F91F5
:1039B0000F900BBE0F900FBE0F901F9018951F9287
:1039C0000F920FB60F9211240BB60F922F933F93C5
:1039D0008F939F93EF93FF932091B00AE09124413E
:1039E000F09125418091084190910941E80FF91F1C
:1039F0002083809108419091094101968436910578
:103A000060F48093084190930941209116413091D0
:103A1000174182179307F1F40CC0109208411092DD
:103A2000094180911641909117411816190691F499
:103A30000EC001968436910528F480931641909328
:103A4000174108C0109216411092174103C081E03F
:103A500090E0F3CFFF91EF919F918F913F912F9144
:103A60000F900BBE0F900FBE0F901F9018951F92D6
:103A70000F920FB60F9211240BB60F922F933F9314
:103A80008F939F93EF93FF932091A00BE09122419E
:103A9000F09123418091064190910741E80FF91F71
:103AA00020838091064190910741019684369105CB
:103AB00060F4809306419093074120911441309126
:103AC000154182179307F1F40CC010920641109231
:103AD000074180911441909115411816190691F4EF
:103AE0000EC001968436910528F48093144190937A
:103AF000154108C0109214411092154103C081E095
:103B000090E0F3CFFF91EF919F918F913F912F9193
:103B10000F900BBE0F900FBE0F901F9018950F9334
:103B20001F93CF93DF93CDB7DEB76D97CDBFDEBFC9
:103B3000F8940E94D7079DEF88ED08B618BE84BFA1
:103B40009093800008BE81E090E00E94DD17809392
:103B500030419093314140EA5AE060E070E0CE019C
:103B600001960E94851A67E0CE0101960E94E21834
:103B70008C016BE570E20E94AB1866E0C8010E9400
:103B8000E21866E00E94E21882E190E00E94DD17F0
:103B90008E010F5F1F4F24E031E040E06AE770E2E2
:103BA0000E94520582E190E00E94DD1724E031E09E
:103BB00041E062E870E20E94780483E190E00E94B4
:103BC000DD1724E031E042E06EE870E20E94420539
:103BD00087E08093A20078940E94EF0E80E090E04E
:103BE0006D96CDBFDEBFDF91CF911F910F910895EC
:103BF0000F931F930AE010E020E030E040E050E037
:103C000060E270E082E391E40E9449161F910F91F7
:103C10000895DB018F939F930E94711EBF91AF9116
:103C2000A29F800D911DA39F900DB29F900D112416
:103C30000895A1E21A2EAA1BBB1BFD010DC0AA1FED
:103C4000BB1FEE1FFF1FA217B307E407F50720F005
:103C5000A21BB30BE40BF50B661F771F881F991F80
:103C60001A9469F760957095809590959B01AC01C9
:103C7000BD01CF010895052E97FB1EF400940E940C
:103C8000521E57FD07D00E94191E07FC03D04EF4A8
:103C90000C94521E50954095309521953F4F4F4FB3
:103CA0005F4F089590958095709561957F4F8F4FE8
:103CB0009F4F0895EE0FFF1F881F8BBF0790F6914F
:103CC000E02D1994A29FB001B39FC001A39F700D76
:103CD000811D1124911DB29F700D811D1124911D14
:103CE00008950E94621EA59F900DB49F900DA49F01
:103CF000800D911D11240895FB01DC0102C001908B
:103D00000D9241505040D8F70895DC0101C06D93E9
:103D100041505040E0F70895FB01DC014150504014
:103D200048F001900D920020C9F701C01D9241504A
:103D30005040E0F708952532310520F4223010F08C
:103D40000C94A61EFA011082CA010895BB27FA013D
:103D5000A62F6217710581059105330B30FB66F0C4
:103D6000AA27660F771F881F991FAA1FA21710F096
:103D7000A21B63953850A9F7A05DAA3308F0A95D8E
:103D8000A19336F7B111B1931082CA010C94ED1EC4
:103D90004532510520F4423010F00C94D31EFB0143
:103DA0001082CB010895BB27FB015527AA27880F56
:103DB000991FAA1FA41710F0A41B83955051B9F79F
:103DC000A05DAA3308F0A95DA193009779F7B1111E
:103DD000B1931192CB010C94ED1EDC01FC01672F15
:103DE00071917723E1F7329704C07C916D937083D2
:0E3DF0006291AE17BF07C8F30895F894FFCF95
:103DFE00FF1FFFFFFFFF000000001104B8140000BA
:103E0E0000008804B814000000009506B814494458
:103E1E004C450000000000E317B8140000000094A9
:103E2E00182B16201602169B189C180000000094E2
:103E3E0018E317991896189B189C18000000009408
:103E4E00181F1A691A431A9B187C1A467265655216
:103E5E00544F5320586D6567612054657374696EB5
:103E6E00672050726F6772616D0055736572496E8F
:103E7E007400456467652053656E736F72004D6FF5
:0A3E8E00746F722054657374000015
:00000001FF
