S0160000556C747261736F6E69635F3235362E73726563EE
S11300000C94FE000C9412010C9412010C94120135
S11300100C9412010C9412010C9412010C94120110
S11300200C9412010C9412010C9412010C94120100
S11300300C9412010C9412010C9412010C941201F0
S11300400C9412010C9412010C9412010C941201E0
S11300500C9412010C9412010C9412010C941201D0
S11300600C9412010C9412010C9412010C941201C0
S11300700C9412010C9412010C9412010C941201B0
S11300800C9412010C9412010C9412010C941201A0
S11300900C9412010C9412010C9412010C94120190
S11300A00C9412010C9412010C9412010C947B0117
S11300B00C9412010C9412010C9412010C94120170
S11300C00C9412010C9412010C9412010C94120160
S11300D00C9412010C9412010C9412010C94120150
S11300E00C9412010C9412010C9412010C94120140
S11300F00C9412010C9412010C9412010C94120130
S11301000C9412010C9412010C9412010C9412011F
S11301100C9412010C9412010C9412010C9412010F
S11301200C9412010C9412010C9412010C941201FF
S11301300C9412010C9412010C9412010C941201EF
S11301400C9412010C9412010C9412010C941201DF
S11301500C9412010C9412010C9412010C941201CF
S11301600C9412010C9412010C9412010C941201BF
S11301700C9412010C9412010C9412010C941201AF
S11301800C9412010C9412010C9412010C9412019F
S11301900C9412010C9412010C9412010C9412018F
S11301A00C9412010C9412010C9412010C9412017F
S11301B00C9412010C9412010C9412010C9412016F
S11301C00C9412010C9412010C9412010C9412015F
S11301D00C9412010C9412010C9412010C9412014F
S11301E00C9412010C9412010C9412010C9412013F
S11301F00C9412010C9412010C94120111241FBED0
S1130200CFEFCDBFDFE5DEBF00E00CBF20E2A0E012
S1130210B0E201C01D92A730B207E1F70E942701A6
S11302200C94BC010C9400008BEC80935200E0E52C
S1130230F0E0808188608083E1E5F0E0808183FFE5
S1130240FDCF88ED84BF83E08093400008950E9431
S11302501401E0E8F6E080818160808380818D7FF5
S11302608083808184608083118A82E0828781E038
S11302708187E0E4FAE08FEF9FEF86A397A381EFF5
S11302808083E2EAF0E08081816080837894E0E812
S1130290F6E040EC54E323E02A95F1F70000848172
S11302A08E7F848383EC99E00197F1F700C000000E
S11302B02091042030910520220F232F221F330B7D
S11302C03195ADE0B2E00E94AD019C01249FC001D4
S11302D0259F900D349F900D1124809302209093BC
S11302E00320029720F4848184608483D4CF8481A2
S11302F08B7F8483D0CF1F920F920FB60F9211245D
S11303002F933F938F939F938091062081110CC06C
S11303108091600A9091610A80930020909301205B
S113032081E08093062010C08091600A9091610A58
S11303302091002030910120821B930B8093042094
S113034090930520109206209F918F913F912F91B9
S11303500F900FBE0F901F901895A29FB001B39FEE
S1130360C001A39F700D811D1124911DB29F700DBA
S10F0370811D1124911D0895F894FFCF05
S9030000FC
