:100000000C94FE000C9417010C9417010C9417012A
:100010000C9417010C9417010C9417010C94170100
:100020000C9417010C9417010C9417010C941701F0
:100030000C9417010C9417010C9417010C941701E0
:100040000C9417010C9417010C9417010C941701D0
:100050000C9417010C9417010C9417010C941701C0
:100060000C9417010C9417010C9417010C941701B0
:100070000C9417010C9417010C9417010C941701A0
:100080000C9417010C9417010C9417010C94170190
:100090000C9417010C9417010C9417010C94170180
:1000A0000C9417010C9417010C9417010C94170170
:1000B0000C9417010C9417010C9417010C94170160
:1000C0000C9417010C9417010C9417010C94170150
:1000D0000C9417010C9417010C9417010C94170140
:1000E0000C9417010C9417010C9417010C94170130
:1000F0000C9417010C9417010C9417010C94170120
:100100000C9417010C9417010C9417010C9417010F
:100110000C9417010C9417010C9417010C941701FF
:100120000C9417010C9417010C9417010C941701EF
:100130000C9417010C9417010C9417010C941701DF
:100140000C9417010C9417010C9417010C941701CF
:100150000C9417010C9417010C9417010C941701BF
:100160000C9417010C9417010C9417010C941701AF
:100170000C9417010C9417010C9417010C9417019F
:100180000C9417010C9417010C9417010C9417018F
:100190000C9417010C9417010C9417010C9417017F
:1001A0000C9417010C9417010C9417010C9417016F
:1001B0000C9417010C9417010C9417010C9417015F
:1001C0000C9417010C9417010C9417010C9417014F
:1001D0000C9417010C9417010C9417010C9417013F
:1001E0000C9417010C9417010C9417010C9417012F
:1001F0000C9417010C9417010C94170111241FBEC5
:10020000CFEFCDBFDFE5DEBF00E00CBF10E2A0E026
:10021000B0E2E4EBF2E000E00BBF02C007900D9209
:10022000A030B107D9F70E9437010C9458010C9403
:100230000000FC016083718321E030E002C0220FE6
:10024000331F4A95E2F72283FB0180812095282302
:1002500020830895DC01ED91FC9111972085129681
:100260008C91922F982381E009F480E00895CF9338
:10027000DF9300D0CDB7DEB7E0E0F6E080818061AB
:10028000808345E060E076E0CE0101960E9419018E
:1002900000E016E0FF24F394CE0101960E942A01AB
:1002A000882319F0F8011482F7CFF801F482F4CF13
:0402B000F894FFCFF0
:00000001FF
